{
  "fileName": "InjectiveToken.sol",
  "contractName": "InjectiveToken",
  "source": "pragma solidity 0.5.2;\n\nimport \"@openzeppelin/upgrades/contracts/Initializable.sol\";\nimport \"@openzeppelin/contracts-ethereum-package/contracts/token/ERC20/ERC20Pausable.sol\";\nimport \"@openzeppelin/contracts-ethereum-package/contracts/token/ERC20/ERC20Detailed.sol\";\nimport \"@openzeppelin/contracts-ethereum-package/contracts/token/ERC20/ERC20Mintable.sol\";\nimport \"@openzeppelin/contracts-ethereum-package/contracts/token/ERC20/ERC20Burnable.sol\";\n\ncontract InjectiveToken is Initializable, ERC20Pausable, ERC20Detailed, ERC20Mintable, ERC20Burnable {\n    function initialize(\n        string memory name, string memory symbol, uint8 decimals, uint256 initialSupply, address initialHolder,\n        address[] memory minters, address[] memory pausers\n    ) public initializer {\n        ERC20Detailed.initialize(name, symbol, decimals);\n\n        // Mint the initial supply\n        _mint(initialHolder, initialSupply);\n\n        // Initialize the minter and pauser roles, and renounce them\n        ERC20Mintable.initialize(address(this));\n        _removeMinter(address(this));\n\n        ERC20Pausable.initialize(address(this));\n        _removePauser(address(this));\n\n        // Add the requested minters and pausers (this can be done after renouncing since\n        // these are the internal calls)\n        for (uint256 i = 0; i < minters.length; ++i) {\n            _addMinter(minters[i]);\n        }\n\n        for (uint256 i = 0; i < pausers.length; ++i) {\n            _addPauser(pausers[i]);\n        }\n    }\n\n}\n",
  "sourcePath": "contracts/InjectiveToken.sol",
  "abi": [
    {
      "constant": true,
      "inputs": [],
      "name": "name",
      "outputs": [
        {
          "name": "",
          "type": "string"
        }
      ],
      "payable": false,
      "stateMutability": "view",
      "type": "function"
    },
    {
      "constant": false,
      "inputs": [
        {
          "name": "spender",
          "type": "address"
        },
        {
          "name": "value",
          "type": "uint256"
        }
      ],
      "name": "approve",
      "outputs": [
        {
          "name": "",
          "type": "bool"
        }
      ],
      "payable": false,
      "stateMutability": "nonpayable",
      "type": "function"
    },
    {
      "constant": false,
      "inputs": [
        {
          "name": "name",
          "type": "string"
        },
        {
          "name": "symbol",
          "type": "string"
        },
        {
          "name": "decimals",
          "type": "uint8"
        }
      ],
      "name": "initialize",
      "outputs": [],
      "payable": false,
      "stateMutability": "nonpayable",
      "type": "function"
    },
    {
      "constant": true,
      "inputs": [],
      "name": "totalSupply",
      "outputs": [
        {
          "name": "",
          "type": "uint256"
        }
      ],
      "payable": false,
      "stateMutability": "view",
      "type": "function"
    },
    {
      "constant": false,
      "inputs": [
        {
          "name": "from",
          "type": "address"
        },
        {
          "name": "to",
          "type": "address"
        },
        {
          "name": "value",
          "type": "uint256"
        }
      ],
      "name": "transferFrom",
      "outputs": [
        {
          "name": "",
          "type": "bool"
        }
      ],
      "payable": false,
      "stateMutability": "nonpayable",
      "type": "function"
    },
    {
      "constant": true,
      "inputs": [],
      "name": "decimals",
      "outputs": [
        {
          "name": "",
          "type": "uint8"
        }
      ],
      "payable": false,
      "stateMutability": "view",
      "type": "function"
    },
    {
      "constant": false,
      "inputs": [
        {
          "name": "spender",
          "type": "address"
        },
        {
          "name": "addedValue",
          "type": "uint256"
        }
      ],
      "name": "increaseAllowance",
      "outputs": [
        {
          "name": "",
          "type": "bool"
        }
      ],
      "payable": false,
      "stateMutability": "nonpayable",
      "type": "function"
    },
    {
      "constant": false,
      "inputs": [],
      "name": "unpause",
      "outputs": [],
      "payable": false,
      "stateMutability": "nonpayable",
      "type": "function"
    },
    {
      "constant": false,
      "inputs": [
        {
          "name": "account",
          "type": "address"
        },
        {
          "name": "amount",
          "type": "uint256"
        }
      ],
      "name": "mint",
      "outputs": [
        {
          "name": "",
          "type": "bool"
        }
      ],
      "payable": false,
      "stateMutability": "nonpayable",
      "type": "function"
    },
    {
      "constant": false,
      "inputs": [
        {
          "name": "amount",
          "type": "uint256"
        }
      ],
      "name": "burn",
      "outputs": [],
      "payable": false,
      "stateMutability": "nonpayable",
      "type": "function"
    },
    {
      "constant": true,
      "inputs": [
        {
          "name": "account",
          "type": "address"
        }
      ],
      "name": "isPauser",
      "outputs": [
        {
          "name": "",
          "type": "bool"
        }
      ],
      "payable": false,
      "stateMutability": "view",
      "type": "function"
    },
    {
      "constant": false,
      "inputs": [
        {
          "name": "name",
          "type": "string"
        },
        {
          "name": "symbol",
          "type": "string"
        },
        {
          "name": "decimals",
          "type": "uint8"
        },
        {
          "name": "initialSupply",
          "type": "uint256"
        },
        {
          "name": "initialHolder",
          "type": "address"
        },
        {
          "name": "minters",
          "type": "address[]"
        },
        {
          "name": "pausers",
          "type": "address[]"
        }
      ],
      "name": "initialize",
      "outputs": [],
      "payable": false,
      "stateMutability": "nonpayable",
      "type": "function"
    },
    {
      "constant": true,
      "inputs": [],
      "name": "paused",
      "outputs": [
        {
          "name": "",
          "type": "bool"
        }
      ],
      "payable": false,
      "stateMutability": "view",
      "type": "function"
    },
    {
      "constant": false,
      "inputs": [],
      "name": "renouncePauser",
      "outputs": [],
      "payable": false,
      "stateMutability": "nonpayable",
      "type": "function"
    },
    {
      "constant": true,
      "inputs": [
        {
          "name": "account",
          "type": "address"
        }
      ],
      "name": "balanceOf",
      "outputs": [
        {
          "name": "",
          "type": "uint256"
        }
      ],
      "payable": false,
      "stateMutability": "view",
      "type": "function"
    },
    {
      "constant": false,
      "inputs": [
        {
          "name": "account",
          "type": "address"
        },
        {
          "name": "amount",
          "type": "uint256"
        }
      ],
      "name": "burnFrom",
      "outputs": [],
      "payable": false,
      "stateMutability": "nonpayable",
      "type": "function"
    },
    {
      "constant": false,
      "inputs": [
        {
          "name": "account",
          "type": "address"
        }
      ],
      "name": "addPauser",
      "outputs": [],
      "payable": false,
      "stateMutability": "nonpayable",
      "type": "function"
    },
    {
      "constant": false,
      "inputs": [],
      "name": "pause",
      "outputs": [],
      "payable": false,
      "stateMutability": "nonpayable",
      "type": "function"
    },
    {
      "constant": true,
      "inputs": [],
      "name": "symbol",
      "outputs": [
        {
          "name": "",
          "type": "string"
        }
      ],
      "payable": false,
      "stateMutability": "view",
      "type": "function"
    },
    {
      "constant": false,
      "inputs": [
        {
          "name": "account",
          "type": "address"
        }
      ],
      "name": "addMinter",
      "outputs": [],
      "payable": false,
      "stateMutability": "nonpayable",
      "type": "function"
    },
    {
      "constant": false,
      "inputs": [],
      "name": "renounceMinter",
      "outputs": [],
      "payable": false,
      "stateMutability": "nonpayable",
      "type": "function"
    },
    {
      "constant": false,
      "inputs": [
        {
          "name": "spender",
          "type": "address"
        },
        {
          "name": "subtractedValue",
          "type": "uint256"
        }
      ],
      "name": "decreaseAllowance",
      "outputs": [
        {
          "name": "",
          "type": "bool"
        }
      ],
      "payable": false,
      "stateMutability": "nonpayable",
      "type": "function"
    },
    {
      "constant": false,
      "inputs": [
        {
          "name": "to",
          "type": "address"
        },
        {
          "name": "value",
          "type": "uint256"
        }
      ],
      "name": "transfer",
      "outputs": [
        {
          "name": "",
          "type": "bool"
        }
      ],
      "payable": false,
      "stateMutability": "nonpayable",
      "type": "function"
    },
    {
      "constant": true,
      "inputs": [
        {
          "name": "account",
          "type": "address"
        }
      ],
      "name": "isMinter",
      "outputs": [
        {
          "name": "",
          "type": "bool"
        }
      ],
      "payable": false,
      "stateMutability": "view",
      "type": "function"
    },
    {
      "constant": false,
      "inputs": [
        {
          "name": "sender",
          "type": "address"
        }
      ],
      "name": "initialize",
      "outputs": [],
      "payable": false,
      "stateMutability": "nonpayable",
      "type": "function"
    },
    {
      "constant": true,
      "inputs": [
        {
          "name": "owner",
          "type": "address"
        },
        {
          "name": "spender",
          "type": "address"
        }
      ],
      "name": "allowance",
      "outputs": [
        {
          "name": "",
          "type": "uint256"
        }
      ],
      "payable": false,
      "stateMutability": "view",
      "type": "function"
    },
    {
      "anonymous": false,
      "inputs": [
        {
          "indexed": true,
          "name": "account",
          "type": "address"
        }
      ],
      "name": "MinterAdded",
      "type": "event"
    },
    {
      "anonymous": false,
      "inputs": [
        {
          "indexed": true,
          "name": "account",
          "type": "address"
        }
      ],
      "name": "MinterRemoved",
      "type": "event"
    },
    {
      "anonymous": false,
      "inputs": [
        {
          "indexed": false,
          "name": "account",
          "type": "address"
        }
      ],
      "name": "Paused",
      "type": "event"
    },
    {
      "anonymous": false,
      "inputs": [
        {
          "indexed": false,
          "name": "account",
          "type": "address"
        }
      ],
      "name": "Unpaused",
      "type": "event"
    },
    {
      "anonymous": false,
      "inputs": [
        {
          "indexed": true,
          "name": "account",
          "type": "address"
        }
      ],
      "name": "PauserAdded",
      "type": "event"
    },
    {
      "anonymous": false,
      "inputs": [
        {
          "indexed": true,
          "name": "account",
          "type": "address"
        }
      ],
      "name": "PauserRemoved",
      "type": "event"
    },
    {
      "anonymous": false,
      "inputs": [
        {
          "indexed": true,
          "name": "from",
          "type": "address"
        },
        {
          "indexed": true,
          "name": "to",
          "type": "address"
        },
        {
          "indexed": false,
          "name": "value",
          "type": "uint256"
        }
      ],
      "name": "Transfer",
      "type": "event"
    },
    {
      "anonymous": false,
      "inputs": [
        {
          "indexed": true,
          "name": "owner",
          "type": "address"
        },
        {
          "indexed": true,
          "name": "spender",
          "type": "address"
        },
        {
          "indexed": false,
          "name": "value",
          "type": "uint256"
        }
      ],
      "name": "Approval",
      "type": "event"
    }
  ],
  "bytecode": "0x6080604052613194806100136000396000f3fe608060405234801561001057600080fd5b506004361061018e5760003560e01c80636ef8d66d116100de578063983b2d5611610097578063a9059cbb11610071578063a9059cbb14610b0b578063aa271e1a14610b71578063c4d66de814610bcd578063dd62ed3e14610c115761018e565b8063983b2d5614610a575780639865027514610a9b578063a457c2d714610aa55761018e565b80636ef8d66d146108d657806370a08231146108e057806379cc67901461093857806382dc1ec4146109865780638456cb59146109ca57806395d89b41146109d45761018e565b8063395093511161014b57806342966c681161012557806342966c681461057957806346fbf68e146105a757806348be01c6146106035780635c975abb146108b45761018e565b806339509351146104a35780633f4ba83a1461050957806340c10f19146105135761018e565b806306fdde0314610193578063095ea7b3146102165780631624f6c61461027c57806318160ddd146103db57806323b872dd146103f9578063313ce5671461047f575b600080fd5b61019b610c89565b6040518080602001828103825283818151815260200191508051906020019080838360005b838110156101db5780820151818401526020810190506101c0565b50505050905090810190601f1680156102085780820380516001836020036101000a031916815260200191505b509250505060405180910390f35b6102626004803603604081101561022c57600080fd5b81019080803573ffffffffffffffffffffffffffffffffffffffff16906020019092919080359060200190929190505050610d2c565b604051808215151515815260200191505060405180910390f35b6103d96004803603606081101561029257600080fd5b81019080803590602001906401000000008111156102af57600080fd5b8201836020820111156102c157600080fd5b803590602001918460018302840111640100000000831117156102e357600080fd5b91908080601f016020809104026020016040519081016040528093929190818152602001838380828437600081840152601f19601f8201169050808301925050505050505091929192908035906020019064010000000081111561034657600080fd5b82018360208201111561035857600080fd5b8035906020019184600183028401116401000000008311171561037a57600080fd5b91908080601f016020809104026020016040519081016040528093929190818152602001838380828437600081840152601f19601f820116905080830192505050505050509192919290803560ff169060200190929190505050610dc5565b005b6103e3610f15565b6040518082815260200191505060405180910390f35b6104656004803603606081101561040f57600080fd5b81019080803573ffffffffffffffffffffffffffffffffffffffff169060200190929190803573ffffffffffffffffffffffffffffffffffffffff16906020019092919080359060200190929190505050610f1f565b604051808215151515815260200191505060405180910390f35b610487610fba565b604051808260ff1660ff16815260200191505060405180910390f35b6104ef600480360360408110156104b957600080fd5b81019080803573ffffffffffffffffffffffffffffffffffffffff16906020019092919080359060200190929190505050610fd2565b604051808215151515815260200191505060405180910390f35b61051161106b565b005b61055f6004803603604081101561052957600080fd5b81019080803573ffffffffffffffffffffffffffffffffffffffff169060200190929190803590602001909291905050506111dd565b604051808215151515815260200191505060405180910390f35b6105a56004803603602081101561058f57600080fd5b810190808035906020019092919050505061125a565b005b6105e9600480360360208110156105bd57600080fd5b81019080803573ffffffffffffffffffffffffffffffffffffffff16906020019092919050505061126e565b604051808215151515815260200191505060405180910390f35b6108b2600480360360e081101561061957600080fd5b810190808035906020019064010000000081111561063657600080fd5b82018360208201111561064857600080fd5b8035906020019184600183028401116401000000008311171561066a57600080fd5b91908080601f016020809104026020016040519081016040528093929190818152602001838380828437600081840152601f19601f820116905080830192505050505050509192919290803590602001906401000000008111156106cd57600080fd5b8201836020820111156106df57600080fd5b8035906020019184600183028401116401000000008311171561070157600080fd5b91908080601f016020809104026020016040519081016040528093929190818152602001838380828437600081840152601f19601f820116905080830192505050505050509192919290803560ff16906020019092919080359060200190929190803573ffffffffffffffffffffffffffffffffffffffff1690602001909291908035906020019064010000000081111561079b57600080fd5b8201836020820111156107ad57600080fd5b803590602001918460208302840111640100000000831117156107cf57600080fd5b919080806020026020016040519081016040528093929190818152602001838360200280828437600081840152601f19601f8201169050808301925050505050505091929192908035906020019064010000000081111561082f57600080fd5b82018360208201111561084157600080fd5b8035906020019184602083028401116401000000008311171561086357600080fd5b919080806020026020016040519081016040528093929190818152602001838360200280828437600081840152601f19601f82011690508083019250505050505050919291929050505061128b565b005b6108bc611442565b604051808215151515815260200191505060405180910390f35b6108de611459565b005b610922600480360360208110156108f657600080fd5b81019080803573ffffffffffffffffffffffffffffffffffffffff16906020019092919050505061146b565b6040518082815260200191505060405180910390f35b6109846004803603604081101561094e57600080fd5b81019080803573ffffffffffffffffffffffffffffffffffffffff169060200190929190803590602001909291905050506114b4565b005b6109c86004803603602081101561099c57600080fd5b81019080803573ffffffffffffffffffffffffffffffffffffffff1690602001909291905050506114c2565b005b6109d2611535565b005b6109dc6116a8565b6040518080602001828103825283818151815260200191508051906020019080838360005b83811015610a1c578082015181840152602081019050610a01565b50505050905090810190601f168015610a495780820380516001836020036101000a031916815260200191505b509250505060405180910390f35b610a9960048036036020811015610a6d57600080fd5b81019080803573ffffffffffffffffffffffffffffffffffffffff16906020019092919050505061174b565b005b610aa36117be565b005b610af160048036036040811015610abb57600080fd5b81019080803573ffffffffffffffffffffffffffffffffffffffff169060200190929190803590602001909291905050506117d0565b604051808215151515815260200191505060405180910390f35b610b5760048036036040811015610b2157600080fd5b81019080803573ffffffffffffffffffffffffffffffffffffffff16906020019092919080359060200190929190505050611869565b604051808215151515815260200191505060405180910390f35b610bb360048036036020811015610b8757600080fd5b81019080803573ffffffffffffffffffffffffffffffffffffffff169060200190929190505050611902565b604051808215151515815260200191505060405180910390f35b610c0f60048036036020811015610be357600080fd5b81019080803573ffffffffffffffffffffffffffffffffffffffff169060200190929190505050611920565b005b610c7360048036036040811015610c2757600080fd5b81019080803573ffffffffffffffffffffffffffffffffffffffff169060200190929190803573ffffffffffffffffffffffffffffffffffffffff169060200190929190505050611a2b565b6040518082815260200191505060405180910390f35b60606101008054600181600116156101000203166002900480601f016020809104026020016040519081016040528092919081815260200182805460018160011615610100020316600290048015610d225780601f10610cf757610100808354040283529160200191610d22565b820191906000526020600020905b815481529060010190602001808311610d0557829003601f168201915b5050505050905090565b6000609b60009054906101000a900460ff16151515610db3576040517f08c379a00000000000000000000000000000000000000000000000000000000081526004018080602001828103825260108152602001807f5061757361626c653a207061757365640000000000000000000000000000000081525060200191505060405180910390fd5b610dbd8383611ab2565b905092915050565b600060019054906101000a900460ff1680610de45750610de3611ad0565b5b80610dfb57506000809054906101000a900460ff16155b1515610e52576040517f08c379a000000000000000000000000000000000000000000000000000000000815260040180806020018281038252602e8152602001806130d1602e913960400191505060405180910390fd5b60008060019054906101000a900460ff161590508015610ea2576001600060016101000a81548160ff02191690831515021790555060016000806101000a81548160ff0219169083151502179055505b836101009080519060200190610eb9929190612f43565b50826101019080519060200190610ed1929190612f43565b508161010260006101000a81548160ff021916908360ff1602179055508015610f0f5760008060016101000a81548160ff0219169083151502179055505b50505050565b6000603554905090565b6000609b60009054906101000a900460ff16151515610fa6576040517f08c379a00000000000000000000000000000000000000000000000000000000081526004018080602001828103825260108152602001807f5061757361626c653a207061757365640000000000000000000000000000000081525060200191505060405180910390fd5b610fb1848484611ae1565b90509392505050565b600061010260009054906101000a900460ff16905090565b6000609b60009054906101000a900460ff16151515611059576040517f08c379a00000000000000000000000000000000000000000000000000000000081526004018080602001828103825260108152602001807f5061757361626c653a207061757365640000000000000000000000000000000081525060200191505060405180910390fd5b6110638383611ba0565b905092915050565b61107b611076611c53565b61126e565b15156110d2576040517f08c379a000000000000000000000000000000000000000000000000000000000815260040180806020018281038252603081526020018061300c6030913960400191505060405180910390fd5b609b60009054906101000a900460ff161515611156576040517f08c379a00000000000000000000000000000000000000000000000000000000081526004018080602001828103825260148152602001807f5061757361626c653a206e6f742070617573656400000000000000000000000081525060200191505060405180910390fd5b6000609b60006101000a81548160ff0219169083151502179055507f5db9ee0a495bf2e6ff9c91a7834c1ba4fdd244a5e8aa4e537bd38aeae4b073aa61119a611c53565b604051808273ffffffffffffffffffffffffffffffffffffffff1673ffffffffffffffffffffffffffffffffffffffff16815260200191505060405180910390a1565b60006111ef6111ea611c53565b611902565b1515611246576040517f08c379a000000000000000000000000000000000000000000000000000000000815260040180806020018281038252603081526020018061305e6030913960400191505060405180910390fd5b6112508383611c5b565b6001905092915050565b61126b611265611c53565b82611e1a565b50565b6000611284826068611fbc90919063ffffffff16565b9050919050565b600060019054906101000a900460ff16806112aa57506112a9611ad0565b5b806112c157506000809054906101000a900460ff16155b1515611318576040517f08c379a000000000000000000000000000000000000000000000000000000000815260040180806020018281038252602e8152602001806130d1602e913960400191505060405180910390fd5b60008060019054906101000a900460ff161590508015611368576001600060016101000a81548160ff02191690831515021790555060016000806101000a81548160ff0219169083151502179055505b611373888888610dc5565b61137d8486611c5b565b61138630611920565b61138f3061209c565b611398306120f7565b6113a130612202565b60008090505b83518110156113db576113d084828151811015156113c157fe5b9060200190602002015161225c565b8060010190506113a7565b5060008090505b82518110156114165761140b83828151811015156113fc57fe5b906020019060200201516122b7565b8060010190506113e2565b5080156114385760008060016101000a81548160ff0219169083151502179055505b5050505050505050565b6000609b60009054906101000a900460ff16905090565b611469611464611c53565b612202565b565b6000603360008373ffffffffffffffffffffffffffffffffffffffff1673ffffffffffffffffffffffffffffffffffffffff168152602001908152602001600020549050919050565b6114be8282612311565b5050565b6114d26114cd611c53565b61126e565b1515611529576040517f08c379a000000000000000000000000000000000000000000000000000000000815260040180806020018281038252603081526020018061300c6030913960400191505060405180910390fd5b611532816122b7565b50565b611545611540611c53565b61126e565b151561159c576040517f08c379a000000000000000000000000000000000000000000000000000000000815260040180806020018281038252603081526020018061300c6030913960400191505060405180910390fd5b609b60009054906101000a900460ff16151515611621576040517f08c379a00000000000000000000000000000000000000000000000000000000081526004018080602001828103825260108152602001807f5061757361626c653a207061757365640000000000000000000000000000000081525060200191505060405180910390fd5b6001609b60006101000a81548160ff0219169083151502179055507f62e78cea01bee320cd4e420270b5ea74000d11b0c9f74754ebdbfc544b05a258611665611c53565b604051808273ffffffffffffffffffffffffffffffffffffffff1673ffffffffffffffffffffffffffffffffffffffff16815260200191505060405180910390a1565b60606101018054600181600116156101000203166002900480601f0160208091040260200160405190810160405280929190818152602001828054600181600116156101000203166002900480156117415780601f1061171657610100808354040283529160200191611741565b820191906000526020600020905b81548152906001019060200180831161172457829003601f168201915b5050505050905090565b61175b611756611c53565b611902565b15156117b2576040517f08c379a000000000000000000000000000000000000000000000000000000000815260040180806020018281038252603081526020018061305e6030913960400191505060405180910390fd5b6117bb8161225c565b50565b6117ce6117c9611c53565b61209c565b565b6000609b60009054906101000a900460ff16151515611857576040517f08c379a00000000000000000000000000000000000000000000000000000000081526004018080602001828103825260108152602001807f5061757361626c653a207061757365640000000000000000000000000000000081525060200191505060405180910390fd5b61186183836123c6565b905092915050565b6000609b60009054906101000a900460ff161515156118f0576040517f08c379a00000000000000000000000000000000000000000000000000000000081526004018080602001828103825260108152602001807f5061757361626c653a207061757365640000000000000000000000000000000081525060200191505060405180910390fd5b6118fa8383612479565b905092915050565b600061191982610135611fbc90919063ffffffff16565b9050919050565b600060019054906101000a900460ff168061193f575061193e611ad0565b5b8061195657506000809054906101000a900460ff16155b15156119ad576040517f08c379a000000000000000000000000000000000000000000000000000000000815260040180806020018281038252602e8152602001806130d1602e913960400191505060405180910390fd5b60008060019054906101000a900460ff1615905080156119fd576001600060016101000a81548160ff02191690831515021790555060016000806101000a81548160ff0219169083151502179055505b611a0682612497565b8015611a275760008060016101000a81548160ff0219169083151502179055505b5050565b6000603460008473ffffffffffffffffffffffffffffffffffffffff1673ffffffffffffffffffffffffffffffffffffffff16815260200190815260200160002060008373ffffffffffffffffffffffffffffffffffffffff1673ffffffffffffffffffffffffffffffffffffffff16815260200190815260200160002054905092915050565b6000611ac6611abf611c53565b84846125b2565b6001905092915050565b600080303b90506000811491505090565b6000611aee8484846127ad565b611b9584611afa611c53565b611b9085603460008a73ffffffffffffffffffffffffffffffffffffffff1673ffffffffffffffffffffffffffffffffffffffff1681526020019081526020016000206000611b47611c53565b73ffffffffffffffffffffffffffffffffffffffff1673ffffffffffffffffffffffffffffffffffffffff16815260200190815260200160002054612a5190919063ffffffff16565b6125b2565b600190509392505050565b6000611c49611bad611c53565b84611c448560346000611bbe611c53565b73ffffffffffffffffffffffffffffffffffffffff1673ffffffffffffffffffffffffffffffffffffffff16815260200190815260200160002060008973ffffffffffffffffffffffffffffffffffffffff1673ffffffffffffffffffffffffffffffffffffffff16815260200190815260200160002054612adc90919063ffffffff16565b6125b2565b6001905092915050565b600033905090565b600073ffffffffffffffffffffffffffffffffffffffff168273ffffffffffffffffffffffffffffffffffffffff1614151515611d00576040517f08c379a000000000000000000000000000000000000000000000000000000000815260040180806020018281038252601f8152602001807f45524332303a206d696e7420746f20746865207a65726f20616464726573730081525060200191505060405180910390fd5b611d1581603554612adc90919063ffffffff16565b603581905550611d6d81603360008573ffffffffffffffffffffffffffffffffffffffff1673ffffffffffffffffffffffffffffffffffffffff16815260200190815260200160002054612adc90919063ffffffff16565b603360008473ffffffffffffffffffffffffffffffffffffffff1673ffffffffffffffffffffffffffffffffffffffff168152602001908152602001600020819055508173ffffffffffffffffffffffffffffffffffffffff16600073ffffffffffffffffffffffffffffffffffffffff167fddf252ad1be2c89b69c2b068fc378daa952ba7f163c4a11628f55a4df523b3ef836040518082815260200191505060405180910390a35050565b600073ffffffffffffffffffffffffffffffffffffffff168273ffffffffffffffffffffffffffffffffffffffff1614151515611ea2576040517f08c379a00000000000000000000000000000000000000000000000000000000081526004018080602001828103825260218152602001806130ff6021913960400191505060405180910390fd5b611eb781603554612a5190919063ffffffff16565b603581905550611f0f81603360008573ffffffffffffffffffffffffffffffffffffffff1673ffffffffffffffffffffffffffffffffffffffff16815260200190815260200160002054612a5190919063ffffffff16565b603360008473ffffffffffffffffffffffffffffffffffffffff1673ffffffffffffffffffffffffffffffffffffffff16815260200190815260200160002081905550600073ffffffffffffffffffffffffffffffffffffffff168273ffffffffffffffffffffffffffffffffffffffff167fddf252ad1be2c89b69c2b068fc378daa952ba7f163c4a11628f55a4df523b3ef836040518082815260200191505060405180910390a35050565b60008073ffffffffffffffffffffffffffffffffffffffff168273ffffffffffffffffffffffffffffffffffffffff1614151515612045576040517f08c379a00000000000000000000000000000000000000000000000000000000081526004018080602001828103825260228152602001806130af6022913960400191505060405180910390fd5b8260000160008373ffffffffffffffffffffffffffffffffffffffff1673ffffffffffffffffffffffffffffffffffffffff16815260200190815260200160002060009054906101000a900460ff16905092915050565b6120b181610135612b6690919063ffffffff16565b8073ffffffffffffffffffffffffffffffffffffffff167fe94479a9f7e1952cc78f2d6baab678adc1b772d936c6583def489e524cb6669260405160405180910390a250565b600060019054906101000a900460ff16806121165750612115611ad0565b5b8061212d57506000809054906101000a900460ff16155b1515612184576040517f08c379a000000000000000000000000000000000000000000000000000000000815260040180806020018281038252602e8152602001806130d1602e913960400191505060405180910390fd5b60008060019054906101000a900460ff1615905080156121d4576001600060016101000a81548160ff02191690831515021790555060016000806101000a81548160ff0219169083151502179055505b6121dd82612c25565b80156121fe5760008060016101000a81548160ff0219169083151502179055505b5050565b612216816068612b6690919063ffffffff16565b8073ffffffffffffffffffffffffffffffffffffffff167fcd265ebaf09df2871cc7bd4133404a235ba12eff2041bb89d9c714a2621c7c7e60405160405180910390a250565b61227181610135612d4b90919063ffffffff16565b8073ffffffffffffffffffffffffffffffffffffffff167f6ae172837ea30b801fbfcdd4108aa1d5bf8ff775444fd70256b44e6bf3dfc3f660405160405180910390a250565b6122cb816068612d4b90919063ffffffff16565b8073ffffffffffffffffffffffffffffffffffffffff167f6719d08c1888103bea251a4ed56406bd0c3e69723c8a1686e017e7bbe159b6f860405160405180910390a250565b61231b8282611e1a565b6123c282612327611c53565b6123bd84603460008873ffffffffffffffffffffffffffffffffffffffff1673ffffffffffffffffffffffffffffffffffffffff1681526020019081526020016000206000612374611c53565b73ffffffffffffffffffffffffffffffffffffffff1673ffffffffffffffffffffffffffffffffffffffff16815260200190815260200160002054612a5190919063ffffffff16565b6125b2565b5050565b600061246f6123d3611c53565b8461246a85603460006123e4611c53565b73ffffffffffffffffffffffffffffffffffffffff1673ffffffffffffffffffffffffffffffffffffffff16815260200190815260200160002060008973ffffffffffffffffffffffffffffffffffffffff1673ffffffffffffffffffffffffffffffffffffffff16815260200190815260200160002054612a5190919063ffffffff16565b6125b2565b6001905092915050565b600061248d612486611c53565b84846127ad565b6001905092915050565b600060019054906101000a900460ff16806124b657506124b5611ad0565b5b806124cd57506000809054906101000a900460ff16155b1515612524576040517f08c379a000000000000000000000000000000000000000000000000000000000815260040180806020018281038252602e8152602001806130d1602e913960400191505060405180910390fd5b60008060019054906101000a900460ff161590508015612574576001600060016101000a81548160ff02191690831515021790555060016000806101000a81548160ff0219169083151502179055505b61257d82611902565b151561258d5761258c8261225c565b5b80156125ae5760008060016101000a81548160ff0219169083151502179055505b5050565b600073ffffffffffffffffffffffffffffffffffffffff168373ffffffffffffffffffffffffffffffffffffffff161415151561263a576040517f08c379a00000000000000000000000000000000000000000000000000000000081526004018080602001828103825260248152602001806131456024913960400191505060405180910390fd5b600073ffffffffffffffffffffffffffffffffffffffff168273ffffffffffffffffffffffffffffffffffffffff16141515156126c2576040517f08c379a000000000000000000000000000000000000000000000000000000000815260040180806020018281038252602281526020018061303c6022913960400191505060405180910390fd5b80603460008573ffffffffffffffffffffffffffffffffffffffff1673ffffffffffffffffffffffffffffffffffffffff16815260200190815260200160002060008473ffffffffffffffffffffffffffffffffffffffff1673ffffffffffffffffffffffffffffffffffffffff168152602001908152602001600020819055508173ffffffffffffffffffffffffffffffffffffffff168373ffffffffffffffffffffffffffffffffffffffff167f8c5be1e5ebec7d5bd14f71427d1e84f3dd0314c0f7b2291e5b200ac8c7c3b925836040518082815260200191505060405180910390a3505050565b600073ffffffffffffffffffffffffffffffffffffffff168373ffffffffffffffffffffffffffffffffffffffff1614151515612835576040517f08c379a00000000000000000000000000000000000000000000000000000000081526004018080602001828103825260258152602001806131206025913960400191505060405180910390fd5b600073ffffffffffffffffffffffffffffffffffffffff168273ffffffffffffffffffffffffffffffffffffffff16141515156128bd576040517f08c379a0000000000000000000000000000000000000000000000000000000008152600401808060200182810382526023815260200180612fe96023913960400191505060405180910390fd5b61290f81603360008673ffffffffffffffffffffffffffffffffffffffff1673ffffffffffffffffffffffffffffffffffffffff16815260200190815260200160002054612a5190919063ffffffff16565b603360008573ffffffffffffffffffffffffffffffffffffffff1673ffffffffffffffffffffffffffffffffffffffff168152602001908152602001600020819055506129a481603360008573ffffffffffffffffffffffffffffffffffffffff1673ffffffffffffffffffffffffffffffffffffffff16815260200190815260200160002054612adc90919063ffffffff16565b603360008473ffffffffffffffffffffffffffffffffffffffff1673ffffffffffffffffffffffffffffffffffffffff168152602001908152602001600020819055508173ffffffffffffffffffffffffffffffffffffffff168373ffffffffffffffffffffffffffffffffffffffff167fddf252ad1be2c89b69c2b068fc378daa952ba7f163c4a11628f55a4df523b3ef836040518082815260200191505060405180910390a3505050565b6000828211151515612acb576040517f08c379a000000000000000000000000000000000000000000000000000000000815260040180806020018281038252601e8152602001807f536166654d6174683a207375627472616374696f6e206f766572666c6f77000081525060200191505060405180910390fd5b600082840390508091505092915050565b6000808284019050838110151515612b5c576040517f08c379a000000000000000000000000000000000000000000000000000000000815260040180806020018281038252601b8152602001807f536166654d6174683a206164646974696f6e206f766572666c6f77000000000081525060200191505060405180910390fd5b8091505092915050565b612b708282611fbc565b1515612bc7576040517f08c379a000000000000000000000000000000000000000000000000000000000815260040180806020018281038252602181526020018061308e6021913960400191505060405180910390fd5b60008260000160008373ffffffffffffffffffffffffffffffffffffffff1673ffffffffffffffffffffffffffffffffffffffff16815260200190815260200160002060006101000a81548160ff0219169083151502179055505050565b600060019054906101000a900460ff1680612c445750612c43611ad0565b5b80612c5b57506000809054906101000a900460ff16155b1515612cb2576040517f08c379a000000000000000000000000000000000000000000000000000000000815260040180806020018281038252602e8152602001806130d1602e913960400191505060405180910390fd5b60008060019054906101000a900460ff161590508015612d02576001600060016101000a81548160ff02191690831515021790555060016000806101000a81548160ff0219169083151502179055505b612d0b82612e28565b6000609b60006101000a81548160ff0219169083151502179055508015612d475760008060016101000a81548160ff0219169083151502179055505b5050565b612d558282611fbc565b151515612dca576040517f08c379a000000000000000000000000000000000000000000000000000000000815260040180806020018281038252601f8152602001807f526f6c65733a206163636f756e7420616c72656164792068617320726f6c650081525060200191505060405180910390fd5b60018260000160008373ffffffffffffffffffffffffffffffffffffffff1673ffffffffffffffffffffffffffffffffffffffff16815260200190815260200160002060006101000a81548160ff0219169083151502179055505050565b600060019054906101000a900460ff1680612e475750612e46611ad0565b5b80612e5e57506000809054906101000a900460ff16155b1515612eb5576040517f08c379a000000000000000000000000000000000000000000000000000000000815260040180806020018281038252602e8152602001806130d1602e913960400191505060405180910390fd5b60008060019054906101000a900460ff161590508015612f05576001600060016101000a81548160ff02191690831515021790555060016000806101000a81548160ff0219169083151502179055505b612f0e8261126e565b1515612f1e57612f1d826122b7565b5b8015612f3f5760008060016101000a81548160ff0219169083151502179055505b5050565b828054600181600116156101000203166002900490600052602060002090601f016020900481019282601f10612f8457805160ff1916838001178555612fb2565b82800160010185558215612fb2579182015b82811115612fb1578251825591602001919060010190612f96565b5b509050612fbf9190612fc3565b5090565b612fe591905b80821115612fe1576000816000905550600101612fc9565b5090565b9056fe45524332303a207472616e7366657220746f20746865207a65726f2061646472657373506175736572526f6c653a2063616c6c657220646f6573206e6f742068617665207468652050617573657220726f6c6545524332303a20617070726f766520746f20746865207a65726f20616464726573734d696e746572526f6c653a2063616c6c657220646f6573206e6f74206861766520746865204d696e74657220726f6c65526f6c65733a206163636f756e7420646f6573206e6f74206861766520726f6c65526f6c65733a206163636f756e7420697320746865207a65726f2061646472657373436f6e747261637420696e7374616e63652068617320616c7265616479206265656e20696e697469616c697a656445524332303a206275726e2066726f6d20746865207a65726f206164647265737345524332303a207472616e736665722066726f6d20746865207a65726f206164647265737345524332303a20617070726f76652066726f6d20746865207a65726f2061646472657373a165627a7a72305820eaecb79b83a9a88292587d2d68eb301eb7b1ac582190adef6441bd776be4fb4c0029",
  "compiler": {
    "name": "solc",
    "version": "0.5.2+commit.1df8f40c.Darwin.appleclang",
    "optimizer": {},
    "evmVersion": "constantinople"
  }
}